:020000040800F2
:10000000C819002001010008D92C0008DB2C0008C9
:10001000E92C0008ED2C0008F12C0008000000007D
:10002000000000000000000000000000F52C0008A7
:10003000F72C000800000000C7680008F92C000831
:100040001B0100081B0100081B0100081B01000820
:100050001B0100081B0100081B0100081B01000810
:100060001B0100081B0100081B0100081B01000800
:100070001B0100081B0100081B0100081B010008F0
:100080001B0100081B0100081B0100081B010008E0
:10009000953B00081B0100081B010008172D0008F4
:1000A0001B0100081B0100081B0100081B010008C0
:1000B0001B0100081B0100081B0100081B010008B0
:1000C0001B0100081B0100081B0100081B010008A0
:1000D0001B0100081B0100081B0100081B01000890
:1000E0001B0100081B0100081B010008DFF80CD0F1
:1000F00006F0E4FF00480047812C0008C8190020E2
:100100000648804706480047FEE7FEE7FEE7FEE7B1
:10011000FEE7FEE7FEE7FEE7FEE7FEE70302000874
:10012000ED0000080CB50020019000906C480068BC
:1001300040F480306A49086000BF6948006800F4F4
:10014000003000900198401C0190009818B9019867
:10015000B0F5A06FF1D16248006800F4003010B132
:100160000120009001E0002000900098012843D178
:100170005C48006840F010005A4908600846006872
:1001800020F0030008600846006840F002000860A4
:1001900053484068524948600846406848600846ED
:1001A000406840F4806048600846406820F47C1055
:1001B00048600846406840F4E81048600846006817
:1001C00040F08070086000BF4548006800F0007093
:1001D0000028F9D04248406820F0030040494860B8
:1001E0000846406840F00200486000BF3C48406854
:1001F00000F00C000828F9D10CBD10B5FFF792FFF4
:1002000010BD10B53648006840F001003449086060
:10021000084640683449084031494860084600684B
:10022000324908402E4908600846006820F48020C2
:1002300008600846406820F4FE0048604FF41F0044
:100240008860FFF7DAFF4FF000602949086010BDB1
:1002500010B5002100200022214B5B6803F00C0147
:1002600021B1042906D0082928D107E0214B224CCE
:10027000236027E01F4B204C236023E0184B5B6872
:1002800003F47010164B5B6803F48032022303EB17
:10029000904022B9194B4343174C23600DE0104B9B
:1002A0005B6803F4003323B1144B4343124C2360C7
:1002B00003E0104B4343104C236003E00D4B0E4C06
:1002C000236000BF00BF064B5B68C3F303130C4CF5
:1002D000E15C094B1B68CB40074C236010BD00005C
:1002E00000100240002002400000FFF8FFFFF6FE71
:1002F00008ED00E000127A000000002000093D0037
:100300000400002031490143314A1160704770B543
:10031000002100230F22C47804B32D4C246804F478
:10032000E064C4F5E064210AC1F10403CA404478E2
:1003300004FA03F18478144021430901254C06781E
:10034000A155047804F01F050124AC4005786D1117
:10035000AD0005F1E025C5F8004109E0047804F09E
:100360001F050124AC401C4D0678761145F8264047
:1003700070BD1A4A0A400243154B1B1F1A60704792
:1003800039B1134A121D12680243114B1B1D1A602A
:1003900006E00F4A121D126882430D4B1B1D1A60A6
:1003A0007047042808D14FF0E021096941F00401A9
:1003B0004FF0E022116107E04FF0E021096921F0E0
:1003C00004014FF0E0221161704700000000FA05BF
:1003D0000CED00E000E400E080E100E080FFFF1FA2
:1003E00010B50446FA48844208D10121401501F0B5
:1003F000DBFA0021601501F0D7FA17E0F5488442D6
:1004000008D10121001501F0CFFA0021201501F0DB
:10041000CBFA0BE0F048844208D10121C80301F077
:10042000C3FA00214FF4004001F0BEFA10BD30B510
:100430000246002000235068E84C20400D790C68EB
:1004400044EA0524204350609068E54C2040D1E9FF
:1004500002542C434D7944EA450420439060D06A0D
:1004600020F470000C7C641EE4B2234340EA035085
:10047000D06230BD00210160017141718160C160B5
:1004800001210174704721B1826842F0010282604B
:1004900003E0826822F001028260704721B1826825
:1004A00042F48072826003E0826822F4807282608B
:1004B000704710B50023CBB21AB144681C434460A6
:1004C00002E044689C43446010BD816841F008012B
:1004D00081607047014600208A6802F008020AB174
:1004E000012000E000207047816841F00401816034
:1004F0007047014600208A6802F004020AB1012018
:1005000000E00020704721B1826842F4A0028260BE
:1005100003E0826822F4A002826070470146002056
:100520008A6802F480020AB1012000E000207047CE
:1005300010B50A4600210023416821F46041531E92
:1005400041EA4331416010BD21B1426842F400628A
:10055000426003E0426822F4006242607047F0B5F6
:1005600004460D4600200021092D11DDE068A5F1AB
:100570000A0606EB4607072606FA07F18843A5F1A7
:100580000A0606EB460603FA06F10843E0600CE0B3
:10059000206905EB4507072606FA07F1884305EBB6
:1005A000450603FA06F108432061072A0FDA606B5B
:1005B000561E06EB86071F2606FA07F18843561ECD
:1005C00006EB860605FA06F10843606322E00D2A71
:1005D0000FDA206BD61F06EB86071F2606FA07F1F7
:1005E0008843D61F06EB860605FA06F1084320630A
:1005F00010E0E06AA2F10D0606EB86071F2606FA58
:1006000007F18843A2F10D0606EB860605FA06F10E
:100610000843E062F0BD21B1826842F4801282603A
:1006200003E0826822F48012826070470146C86C41
:1006300080B2704766484C300068704721B142680C
:1006400042F48062426003E0426822F480624260C9
:10065000704721B1426842F48052426003E0426830
:1006600022F48052426070470A460021816821F4DA
:10067000E04111438160704721B1826842F4004239
:10068000826003E0826822F400428260704721B1F8
:10069000826842F40212826003E0826822F402124D
:1006A00082607047014600208A6802F400120AB195
:1006B000012000E000207047F0B5044615460020F8
:1006C00000220026092911DDE068A1F10A0707EBE5
:1006D000470C072707FA0CF29043A1F10A0707EB32
:1006E000470703FA07F21043E0600CE0206901EBD2
:1006F000410C072707FA0CF2904301EB410703FA7C
:1007000007F210432061A06BC0F30156EF1C06F105
:10071000010CA7EB0C0707EB870C1F2707FA0CF25D
:100720009043EF1C06F1010CA7EB0C0707EB8707C2
:1007300001FA07F21043A063F0BD10B50A4600218C
:100740000023816B21F44011531E41EA0351816360
:1007500010BD08B5002300930090009B0B4400934C
:10076000009B1A6008BD08B5024600200090009268
:1007700001F12800009B184400900098006880B2A6
:1007800008BD0A4600214168164B194011434160DB
:1007900070474162826270470A460021416821F039
:1007A0001F0111434160704740B109490831096890
:1007B00041F40001064A0832116007E0044908319B
:1007C000096821F40001024A0832116070470000F4
:1007D0000024014000280140003C0140FFFEF0FFE2
:1007E000FDF7F1FFFFFD3FFF0246002013680B40BD
:1007F0000BB1012000E000207047CA43026070473F
:1008000070B502460020002300240B125568CEB2BA
:1008100005EA060415681D4015B10CB1012000E081
:10082000002070BD00220A12D3430360704700000D
:1008300010B50446FE48844209D10121480601F062
:10084000C0F800214FF0007001F0BBF808E0012172
:10085000880601F0B6F800214FF0806001F0B1F891
:1008600010BD30B5024600200023146824F00204B5
:100870001460146844F00104146000E05B1C5468C8
:1008800004F001041CB94FF6FF74A342F6D154687A
:1008900004F001040CB900206CE08C79012C04D127
:1008A000146844F08004146003E0146824F08004A9
:1008B0001460CC79012C04D1146844F04004146015
:1008C00003E0146824F0400414600C7A012C04D175
:1008D000146844F02004146003E0146824F0200439
:1008E00014604C7A012C04D1146844F01004146094
:1008F00003E0146824F0100414608C7A012C04D1F5
:10090000146844F00804146003E0146824F0080438
:100910001460CC7A012C04D1146844F004041460EF
:1009200003E0146824F0040414608C78A407CD78E4
:1009300044EA05640D7944EA05444D7944EA0554D6
:100940000D886D1E2C43D461146824F001041460DA
:10095000002300E05B1C546804F001041CB14FF656
:10096000FF74A342F6D1546804F001040CB10020D6
:1009700000E0012030BD10B50021837A012202FA87
:1009800003F1AC4A126842F00102AA4B1A60A94A6C
:100990001C3212688A43A74B1C331A60027BCAB907
:1009A000A44A0C3212688A43A24B0C331A60428864
:1009B000C38842EA03439F4A4032847A42F8343083
:1009C0000288838842EA03439A4A4032847A02EBDF
:1009D000C4025360027B012A19D1964A0C32126874
:1009E0000A43944B0C331A604288038842EA03435B
:1009F000904A4032847A42F83430C288838842EA8E
:100A000003438C4A4032847A02EBC4025360C27AB8
:100A10003AB9884A121D12688A43864B1B1D1A6018
:100A200006E0844A121D12680A43824B1B1D1A609D
:100A3000028932B97F4A143212688A437D4B1433DB
:100A40001A600289012A06D17A4A143212680A43CE
:100A5000784B14331A60427B012A06D1754A1C3246
:100A600012680A43734B1C331A60724A126822F0F0
:100A70000102704B1A6010BD00218171C1710172B9
:100A800041728172C1728170C170032101710221B2
:100A900041710121018070476649096841F00101F7
:100AA000644A11601146096843F60E729143614A27
:100AB00011601146096841EA002111601146096878
:100AC00021F001011160704721B1026842F48032C7
:100AD000026003E0026822F4803202607047E1B1F4
:100AE000026842F0800202604FF4C272125842F46F
:100AF00080734FF4C27213504FF4CA72125842F40A
:100B000080734FF4CA7213504FF4D272125842F4E9
:100B100080734FF4D27213501BE0026822F08002FF
:100B200002604FF4C272125822F480734FF4C27202
:100B300013504FF4CA72125822F480734FF4CA72E1
:100B400013504FF4D272125822F480734FF4D272C1
:100B50001350704710B502460020936803F080637D
:100B6000B3F1806F00D110E0936803F00063B3F13C
:100B7000006F01D1012008E0936803F08053B3F1C6
:100B8000805F01D1022000E00420042879D002F522
:100B9000C07303EB00131B6803F0010402F5C0737C
:100BA00003EB00131C600B7A7BB94B7A0C8843EA89
:100BB000445302F5C07404EB00142468234302F587
:100BC000C07404EB0014236010E00B7A4C6843EA15
:100BD000C4034C7A234302F5C07404EB0014246868
:100BE000234302F5C07404EB001423608B7A03F0F6
:100BF0000F038B7202F5C07303EB00135B6823F0E5
:100C00000F0402F5C07303EB00135C6002F5C073C0
:100C100003EB00135B688C7A234302F5C07404EB8A
:100C2000001463608B7B1C064B7B44EA034403E0A7
:100C300000640040006600400B7B44EA0323CC7A4A
:100C4000234302F5C07404EB0014A3608B7C1C06E4
:100C50004B7C44EA03440B7C44EA0323CC7B2343D0
:100C600002F5C07404EB0014E36002F5C07303EBFB
:100C700000131B6843F0010402F5C07303EB00137B
:100C80001C6010BD10B50246002321B1012907D018
:100C900002290FD109E09068F94C00EA04030BE047
:100CA0009068F84C00EA040306E09068F64C00EA0D
:100CB000040301E0002300BF00BFF44C181BA34253
:100CC00016D007DC83B16FF08060184470B1022841
:100CD00018D111E0B0F5007F10D0ED4C204448B1A0
:100CE000B0F5003F0ED10BE002230DE000230BE036
:100CF000002309E0002307E0012305E0012303E0CE
:100D0000012301E0002300BF00BFD8B210BD21B114
:100D1000012907D002290FD109E0826842F0800240
:100D200082600AE0826842F40042826005E08268E4
:100D300042F40002826000E000BF00BF704710B5BF
:100D400000F5D87303EB01131B6803F0040313725F
:100D5000137A53B900F5D87303EB01131B6840F203
:100D6000FF7404EA5353136009E000F5D87303EBF2
:100D700001131B686FF0604404EAD303536000F56D
:100D8000D87303EB01131B6803F00203537200F5E1
:100D9000D87303EB01135B6803F00F03937200F544
:100DA000D87303EB01135B681B0AD37400F5D87387
:100DB00003EB01139B68D37200F5D87303EB0113A7
:100DC0009B681C0A147300F5D87303EB01139B682E
:100DD0001C0C547300F5D87303EB01139B681B0EB6
:100DE000937300F5D87303EB0113DB68D37300F53D
:100DF000D87303EB0113DB681C0A147400F5D87375
:100E000003EB0113DB681C0C547400F5D87303EB7F
:100E10000113DB681B0E937421B9C36843F02003F0
:100E2000C36003E0036943F02003036110BD21B9EF
:100E3000C26842F02002C26003E0026942F0200270
:100E4000026170470246002019B9D36803F003001D
:100E500006E0012903D1136903F0030000E000203C
:100E6000704710B502460B4600204FF6FF71BBB924
:100E7000146824F0020444F00104146000E0491EE8
:100E8000546804F00304012C01D00029F7D1546800
:100E900004F00304012C01D0002032E0012030E0F6
:100EA000012B13D1146824F00304146000E0491EE0
:100EB000546804F003040CB10029F8D1546804F01C
:100EC00003040CB100201CE001201AE0022B17D112
:100ED000146824F0010444F00204146000E0491E88
:100EE000546804F00304022C01D00029F7D154689F
:100EF00004F00304022C01D0002002E0012000E0F5
:100F0000002010BD014600200A6822F0010242F0D4
:100F100002020A604A6802F00302022A00D101209C
:100F2000704701464FF6FF7200200B6823F0020362
:100F30000B6000E0521E4B6803F00203022B01D14C
:100F4000002AF7D14B6803F00203022B00D00120E6
:100F50007047014600208A6902F070007047014620
:100F600000208A69100E7047014600208A69C2F38A
:100F7000074070471AB143690B43436102E043697C
:100F80008B434361704710B50246002001F47003A3
:100F900043B19369C1F3130423400BB101202DE049
:100FA00000202BE001F0807343B15368C1F31304B8
:100FB00023400BB1012021E000201FE001F000637D
:100FC00043B19368C1F3130423400BB1012015E032
:100FD000002013E001F0007343B1D368C1F31304A0
:100FE00023400BB1012009E0002007E01369C1F3A1
:100FF000130423400BB1012000E0002010BD0022AB
:10100000244B994202D10023836111E0C1F3130202
:1010100001F000730BB1C2600AE001F080630BB114
:10102000026105E001F000630BB1826000E0426004
:1010300070470246002002EA01030BB1012000E0E4
:101040000020704770B504460D46002660692840B0
:10105000002872D0B5F5807F69D01DDC082D42D004
:1010600006DC012D2DD0022D31D0042D7FD134E0AE
:10107000102D3ED0202D42D0402D78D145E00000EB
:101080000300000400030008000003100001000832
:101090000001FFF77000F030B5F5004F61D009DCBA
:1010A000B5F5007F4AD0B5F5806F4DD0B5F5006F2E
:1010B0005DD150E0B5F5803F2DD0B5F5003F56D15C
:1010C0002FE0A0685549FFF7B4FF064651E0E068FD
:1010D0000321FFF7AEFF06464BE0E0680821FFF76B
:1010E000A8FF064645E0E0681021FFF7A2FF06468C
:1010F0003FE020690321FFF79CFF064639E02069A5
:101100000821FFF796FF064633E020691021FFF71C
:1011100090FF06462DE060680821FFF78AFF06462B
:1011200027E060681021FFF784FF064621E0A069F0
:101130000121FFF77EFF06461BE01BE0A0690221AC
:10114000FFF777FF064614E0A0690421FFF771FF5F
:1011500006460EE00BE0A0697021FFF76AFF064625
:1011600007E060680421FFF764FF064601E00026FF
:1011700000BF00E00026304670BDB1F5007F3AD0D8
:101180000FDC202928D006DC01291CD004291DD021
:10119000082940D11DE0402921D0B1F5807F3AD106
:1011A00026E0B1F5004F31D006DCB1F5806F25D0D7
:1011B000B1F5006F2FD124E0B1F5803F12D0B1F529
:1011C000003F28D111E0154A826025E00822C26064
:1011D00022E01022C2601FE0082202611CE01022FF
:1011E000026119E00822426016E01022426013E01A
:1011F0000422426010E0042242600DE004224260BA
:101200000AE0002282610422426005E0002282613D
:101210000422426000E000BF00BF704701010100EE
:10122000002044490860091D0860091D0860091D67
:10123000086041483F4914310860704700213D492A
:101240008279002A3AD00A46126803689A430B460C
:101250001A600A1D126803689A430B1D1A6002790E
:1012600011440A6803681A430A60324A0832126855
:1012700003689A432F4B08331A601A1D12680368DB
:101280009A432C4B0C331A604279102A0ED11A1F44
:10129000126803681A43274B08331A601A1D126834
:1012A00003681A43234B0C331A600DE0214942793D
:1012B00011440A6803681A430A6005E00279114480
:1012C0000A6803689A430A6070470021016001714F
:1012D0000C21417100218171704716491031096854
:1012E0000143144A10321160704701460020114A30
:1012F000143212680A400AB1012000E00020704751
:101300000C49143108607047014600200022094B47
:101310001B6803EA0102074B14331B680B4013B12F
:101320000AB1012000E00020704702491431086032
:101330007047000000040140FFFF0F0010B5044695
:10134000CC48844208D10121042000F02DFB00216B
:10135000042000F029FB46E0C748844208D101215F
:10136000082000F021FB0021082000F01DFB3AE0DE
:10137000C248844208D10121102000F015FB002151
:10138000102000F011FB2EE0BD48844208D101215D
:10139000202000F009FB0021202000F005FB22E0C6
:1013A000B848844208D10121402000F0FDFA002114
:1013B000402000F0F9FA16E0B348844208D1012138
:1013C000802000F0F1FA0021802000F0EDFA0AE020
:1013D000AE48844207D10121801500F0E5FA0021D2
:1013E000A01500F0E1FA10BD10B50121084600F08B
:1013F000DBFA0021012000F0D7FA10BD2DE9F04101
:10140000024600250026002000230024002791F832
:1014100003C00CF00F0591F803C00CF0100CBCF1E8
:10142000000F03D091F802C04CEA050591F800C006
:10143000BCF1000F31D0146800202BE04FF0010CFC
:101440000CFA00F3B1F800C00CEA03069E4220D16A
:1014500083004FF00F0C0CFA03F7BC4305FA03FCB2
:101460004CEA040491F803C0BCF1280F06D14FF0F8
:10147000010C0CFA00FCC2F814C00AE091F803C099
:10148000BCF1480F05D14FF0010C0CFA00FCC2F87A
:1014900010C0401C0828D1D31460B1F800C0BCF1C2
:1014A000FF0F34DD546800202EE000F1080C4FF0EF
:1014B000010808FA0CF3B1F800C00CEA03069E42DA
:1014C00021D183004FF00F0C0CFA03F7BC4305FA4F
:1014D00003FC4CEA040491F803C0BCF1280F05D1C9
:1014E00000F1080C08FA0CF8C2F8148091F803C057
:1014F000BCF1480F07D100F1080C4FF0010808FAC1
:101500000CF8C2F81080401C0828CED35460BDE807
:10151000F0814FF6FF710180022181700421C170BA
:1015200070470246002093680B400BB1012000E099
:10153000002070470146886880B27047024600204C
:10154000D3680B400BB1012000E00020704701463A
:10155000C86880B2704701617047416170470AB145
:10156000016100E041617047C16070474FF4803213
:101570000A438261816182618269826970470246A1
:101580000020434B18684FF68073184040EA021061
:1015900008433F4B186070473E49C8617047F0B53B
:1015A0000A46002300240021002500F00046B6F181
:1015B000004F02D1364EF16901E0354E7168C0F33B
:1015C000034583B200F44016B6F5401F08D121F060
:1015D00070612F4E766826F070662D4F7E6012E0A7
:1015E00000F48016B6F5801F06D1032606FA05F42E
:1015F000A14341F0706106E0460D360103FA06F69C
:10160000B14341F0706122B1460D360103FA06F68E
:10161000314300F00046B6F1004F02D11C4EF1619B
:1016200001E01B4E7160F0BD30B500228B071C0F2E
:101630000F2303FA04F2164B08338C1053F82430AE
:101640009343134C08348D1044F8253023468C10F6
:1016500053F824308C07240F00FA04F423430C4C75
:1016600008348D1044F8253030BD0A49DC3108605B
:101670007047000000080140000C014000100140CC
:101680000014014000180140001C014000200140EE
:101690000000014000002042DF48006840F00100E7
:1016A000DD49086008464068DC490840DA4948607E
:1016B00008460068DA490840D749086008460068CB
:1016C00020F4802008600846406820F4FE0048604E
:1016D0004FF41F0088607047CF49096821F48031BA
:1016E000CD4A11601146096821F480211160B0F5DE
:1016F000803F03D0B0F5802F0ED106E0C6490968BF
:1017000041F48031C44A116007E0C349096841F4DB
:10171000A021C14A116000E000BF00BF704710B5B2
:1017200001460022002300204A11012A02D1BA4CAE
:10173000236806E0022A02D1B74C236A01E0B64CC6
:10174000636A01F01F02012494401C400CB1012087
:1017500000E0002010BD38B50020009000240025D6
:1017600000BF3120FFF7DBFF05460098401C0090CA
:101770000098B0F5A06F01D0002DF2D03120FFF716
:10178000CEFF08B1012400E00024204638BD014608
:101790000020A14A106820F0F80040EAC100106063
:1017A0007047A04908607047024600209A4B58686D
:1017B00020F47C1042EA01031843974B58607047AD
:1017C00098490866704701460020934A506820F007
:1017D00003000843506070478F48406800F00C00D9
:1017E0007047014600208C4A506820F0F000084302
:1017F0005060704701460020874A506820F4E0603E
:1018000008435060704701460020834A506820F426
:10181000605040EAC1005060704729B17E4A527A58
:1018200002437D4B5A7204E07B4A527A82437A4BE0
:101830005A7270477B49D8310860704701460020D2
:10184000754A506820F440400843506070470021BA
:10185000714A20321170704A82F82010012802D09B
:1018600004280AD104E001216B4A2032117005E0FE
:101870000521694A2032117000E000BF00BF7047A7
:101880006949086070476449096A0143624A116204
:101890007047654944390860704730B5002100221F
:1018A000002400235C4D6D6805F00C0121B1042972
:1018B00005D0082923D105E05C4D056022E05B4D91
:1018C00005601FE0544D6D6805F47012524D6D684F
:1018D00005F48034022505EB92421CB9544D554362
:1018E00005600BE04C4D6D6805F400351DB1504DA1
:1018F0005543056002E04D4D5543056002E04B4DF8
:10190000056000BF00BF444D6D6805F0F001090996
:10191000484D6B5C0568DD4045603F4D6D6805F4E2
:10192000E061090A434D6B5C4568DD4085603A4DD6
:101930006D6805F46051C90A3E4D6B5C4568DD4039
:10194000C560354D6D6805F44041890B3A4D6B5CBF
:10195000C568B5FBF3F5056130BD29B12E4A526962
:1019600002432D4B5A6104E02B4A526982432A4BB1
:101970005A61704729B1284A92690243264B9A61FD
:1019800004E0254A92698243234B9A61704729B14A
:10199000214AD2690243204BDA6104E01E4AD2692F
:1019A00082431D4BDA61704729B11B4AD26802435A
:1019B000194BDA6004E0184AD2688243164BDA60A9
:1019C000704729B1144A12690243134B1A6104E0AB
:1019D000114A12698243104B1A617047124940390B
:1019E000086070470F49C86470470B49C871704759
:1019F0000948406A40F080700749486270470146D4
:101A00000020054A92680A400AB1012000E0002047
:101A10007047014988727047001002400000FFF8CB
:101A2000FFFFF6FE000042428004424200127A00AC
:101A300000093D00140000202400002010B50446D9
:101A4000FE48844208D10121C014FFF7ADFF0021F8
:101A5000E014FFF7A9FFC4E0B4F1804F08D10121E1
:101A60000846FFF7AEFF00210120FFF7AAFFB8E00C
:101A7000F348844208D101210220FFF7A2FF002190
:101A80000220FFF79EFFACE0EE48844208D101211E
:101A90000420FFF796FF00210420FFF792FFA0E04B
:101AA000E948844208D101210820FFF78AFF00217C
:101AB0000820FFF786FF94E0E448844208D1012122
:101AC0001020FFF77EFF00211020FFF77AFF88E04B
:101AD000DF48844208D101212020FFF772FF002156
:101AE0002020FFF76EFF7CE0DA48844208D1012114
:101AF0004014FFF759FF00216014FFF755FF70E015
:101B0000D548844209D10121C804FFF74DFF0021C7
:101B10004FF40020FFF748FF63E0D048844209D12A
:101B200001210805FFF740FF00214FF48010FFF767
:101B30003BFF56E0CA48844209D101214805FFF71E
:101B400033FF00214FF40010FFF72EFF49E0C54896
:101B5000844208D101214020FFF733FF00214020BB
:101B6000FFF72FFF3DE0C048844208D101218020CB
:101B7000FFF727FF00218020FFF723FF31E0BB485C
:101B8000844208D101218015FFF71BFF0021A01519
:101B9000FFF717FF25E0B648844209D10121080468
:101BA000FFF702FF00214FF48030FFF7FDFE18E041
:101BB000B048844209D101214804FFF7F5FE002115
:101BC0004FF40030FFF7F0FE0BE0AB48844208D141
:101BD00001218804FFF7E8FE00214FF48020FFF781
:101BE000E3FE10BD00220288944B98420ED0994B20
:101BF00098420BD0B0F1804F08D0914B984205D05D
:101C0000904B984202D0904B984204D14FF68F737C
:101C10001A404B881A438D4B984207D08C4B984200
:101C200004D04FF6FF431A40CB881A4302808B88BA
:101C300083850B880385814B98420BD0854B984256
:101C400008D08B4B984205D08A4B984202D08A4BE1
:101C5000984201D10B7A038601238382704770B5C5
:101C6000002400220023058C4FF6FE7635400584C3
:101C7000028C8388048B4FF68F752C40B51E2C4048
:101C80000D882C43751E2A400D892A434D882A430E
:101C90006A4DA8420BD06F4DA84208D0744DA8429F
:101CA00005D0744DA84202D0734DA84213D14FF60F
:101CB000F7752A404D892A434FF6FB752A408D88D7
:101CC0002A434FF6FF652B404FF6FF552B408D8979
:101CD0002B43CD892B4383800483CD888586028462
:101CE00070BD70B5002400220023058C4FF6EF76FE
:101CF00035400584028C8388048B48F6FF752C40A0
:101D00004FF6FF452C400D884FF6FF7606EA052575
:101D10002C434FF6DF752A400D8906EA05152A4344
:101D20004D8806EA05152A43444DA84202D0494D84
:101D3000A8421DD14FF67F752A404D894FF6FF7698
:101D400006EA05152A434FF6BF752A408D8806EA34
:101D500005152A434FF6FF352B404FF2FF752B40F8
:101D60008D8906EA85052B43CD8906EA85052B4337
:101D700083800483CD880587028470BD70B50024FC
:101D800000220023058C4FF6FF6635400584028C47
:101D90008388848B4FF68F752C404FF6FC752C4052
:101DA0000D882C434FF6FF552A400D894FF6FF76DC
:101DB00006EA05252A434D8806EA05252A431F4DD4
:101DC000A84202D0234DA8421DD14FF2FF752A40F0
:101DD0004D894FF6FF7606EA05252A434FF6FF3573
:101DE0002A408D8806EA05252A434EF6FF752B40CA
:101DF0004DF6FF752B408D8906EA05152B43CD89DD
:101E000006EA05152B4383808483CD888587028469
:101E100070BD70B5002200230024058C4EF6FF76BD
:101E200035400584038C8488828B48F6FF752A40F0
:101E30004FF6FF452A400D8820E00000002C0140AD
:101E40000004004000080040000C0040001000406A
:101E50000014004000340140004C0140005001409B
:101E60000054014000180040001C004000200040C9
:101E70000040014000440140004801404FF6FF7619
:101E800006EA05252A434DF6FF752B400D8906EA23
:101E900005352B434D8806EA05352B43FA4DA842FC
:101EA00002D0FA4DA84208D14BF6FF752C408D891F
:101EB0004FF6FF7606EA85152C4384808283CD8811
:101EC000A0F84050038470BD828B4FF2FF331A405C
:101ED0008283828B4FF6FF7303EA01231A438283C6
:101EE0007047F0B50C461546002200210026078CED
:101EF0004EF6FF7C07EA0C070784828B018C4FF6B5
:101F0000FF7707EA043640F6FF473A404FF6FF777F
:101F100007EA05273A434FF6FF7707EA03373A43C4
:101F2000D94FB8420ED0D94FB8420BD0B0F1804F44
:101F300008D0D74FB84205D0D64FB84202D0D64FBE
:101F4000B84206D14DF6FF77394046F48057394301
:101F500005E047F6FF57394044F480573943828300
:101F60000184F0BD828B4FF6F3731A408283828B1B
:101F70000A4382837047F0B50C46154600220021C3
:101F80000026078C4FF6FF6C07EA0C070784828B4C
:101F9000018C4FF6FF7707EA04264FF60C773A409C
:101FA0004FF6FF7707EA03172F433A43B64FB8427D
:101FB0000ED0B64FB8420BD0B0F1804F08D0B44F1E
:101FC000B84205D0B34FB84202D0B34FB84206D1A1
:101FD0004FF6FF57394046F48077394305E04FF21A
:101FE000FF57394044F48077394382830184F0BD40
:101FF000028B4FF2FF331A400283028B4FF6FF73BE
:1020000003EA01231A4302837047F0B50C461546D4
:10201000002200210026078C4FF6EF7C07EA0C0710
:102020000784028B018C4FF6FF7707EA041640F60F
:10203000FF473A404FF6FF7707EA03373A434FF638
:10204000FF7707EA05273A438F4FB8420ED08F4FEC
:10205000B8420BD0B0F1804F08D08D4FB84205D0B8
:102060008C4FB84202D08C4FB84206D14FF6DF7782
:10207000394046F01007394305E04FF65F773940A5
:1020800044F01007394302830184F0BD028B4FF600
:10209000F3731A400283028B0A4302837047F0B540
:1020A0000C46154600220021068C4FF6FE773E4076
:1020B0000684028B018C4FF60C7632407E1C06EAB9
:1020C00003162E433243704EB0420ED06F4EB042D4
:1020D0000BD0B0F1804F08D06D4EB04205D06D4EA0
:1020E000B04202D06C4EB04206D14FF6FD76314080
:1020F00044F00106314305E04FF6F576314044F0F7
:102100000106314302830184F0BD70B505460C46DB
:102110005D4885420ED05D4885420BD0B5F1804FB9
:1021200008D05B48854205D05A48854202D05A48BB
:10213000854200D100E000BF208850B92389A288E1
:1021400061882846FFF7ABFFE1882846FFF79EFF2E
:1021500025E0208804280AD12389A288618828469E
:10216000FFF753FFE1882846FFF742FF17E020887A
:1021700008280AD12389A28861882846FFF7FBFE38
:10218000E1882846FFF7EEFE09E02389A2886188EE
:102190002846FFF7A6FEE1882846FFF795FE70BDAA
:1021A0002DE9F04105460C4600260127608808B954
:1021B000022600E00026A088012801D1022700E0C5
:1021C00001272088A0B92389A28861882846FFF7C3
:1021D00066FFE1882846FFF759FF23893A463146D2
:1021E0002846FFF712FFE1882846FFF701FF13E0BA
:1021F0002389A28861882846FFF707FFE1882846DF
:10220000FFF7F6FE23893A4631462846FFF747FF97
:10221000E1882846FFF73AFFBDE8F0810A884B883D
:102220001A438B881A43CB881A430B891A434B896C
:102230001A438B891A43A0F8442070474FF6FF7168
:10224000818000210180C18041800172704700219E
:10225000018041808180C180018141818181C18172
:102260007047002101804180012181800021C180CF
:10227000018170470021018041808180C1800181FE
:102280004181818170470000002C014000340140F1
:102290000004004000080040000C004021B102880A
:1022A00042F00102028004E002884FF6FE731A40F9
:1022B0000280704731B1B0F8442042F40042A0F8E7
:1022C000442005E0B0F84420C2F30E02A0F84420F8
:1022D00070471AB183890B43838102E083898B4362
:1022E000838170478182704741EA0203A0F8483039
:1022F00070471AB183890B43838102E083898B4342
:102300008381704701894FF6F8721140018170474F
:102310000A46002101894FF68F731940114301814C
:10232000704730B504460D4629462046FFF7F0FFBA
:10233000208940F00700208130BD2DE9F04104469E
:102340000D4616461F46602D06D13B4601223146FA
:102350002046FFF75AFE05E03B4601223146204663
:10236000FFF79DFE29462046FFF7D2FF208940F067
:1023700007002081BDE8F08130B50C4600210189BD
:10238000C9B24FF6FF7505EA0325154325432943D6
:10239000018130BD2DE9F04105460E4617469846AD
:1023A000002443463A4631462846FFF7E5FF2C898C
:1023B0004FF6F870044044F007044FF68F70044065
:1023C00044F070042C81BDE8F081F0B504460D4660
:1023D00016461F463B46324629462046FFF7CCFFAD
:1023E000208940F480402081F0BD018582827047C1
:1023F0000A46002101884FF68F731940114301806E
:102400007047F0B50C4615461E46002100220023F9
:102410000189028B038C4FF6F877394021434FF640
:10242000FC473A4040F201173A434FF6DD773B4014
:102430004FF6FF7707EA06172F433B4301810283DC
:102440000384F0BD0A460021018B4FF68F731940BB
:102450001143018370470A460021018B48F6FF7340
:1024600019404FF6FF7303EA0223194301837047B3
:102470000A460021818B4FF68F73194011438183E7
:1024800070470A460021818B48F6FF7319404FF6CA
:10249000FF7303EA022319438183704721B1028845
:1024A00042F08002028004E002884FF67F731A40F7
:1024B0000280704721B1828842F00402828004E0E9
:1024C00082884FF6FB731A408280704721B1828860
:1024D00042F00802828004E082884FF6F7731A40C7
:1024E0008280704721B1828842F00102828004E03C
:1024F00082884FF6FE731A40828070470A46002198
:10250000018B4FF6F77319401143018370470A4658
:102510000021018B4FF2FF7319404FF6FF7303EA5E
:1025200002231943018370470A460021818B4FF62D
:10253000F77319401143818370470A460021818B4C
:102540004FF2FF7319404FF6FF7303EA022319435A
:10255000818370470A460021018B4FF6FB731940B7
:102560001143018370470A460021018B4FF6FF3368
:1025700019404FF6FF7303EA0223194301837047A2
:102580000A460021818B4FF6FB731940114381836A
:1025900070470A460021818B4FF6FF3319404FF6F2
:1025A000FF7303EA02231943818370470A4600211F
:1025B000018B4FF67F7319401143018370470A4620
:1025C0000021018BC1F30E014FF6FF7303EA0223D2
:1025D0001943018370470A460021818B4FF67F73B0
:1025E00019401143818370470A460021818BC1F352
:1025F0000E014FF6FF7303EA0223194381837047EC
:102600000A460021018C4FF6FD73194011430184E5
:1026100070470A460021018C4FF6F77319401143A9
:10262000018470470A460021018C4FF6DF73194080
:102630004FF6FF7303EA02131943018470470A46F9
:102640000021018C4FF67F7319404FF6FF7303EAA8
:1026500002131943018470470A460021018C4FF68A
:10266000FF5319404FF6FF7303EA02231943018415
:1026700070470A460021018C4FF2FF7319404FF654
:10268000FF7303EA02231943018470470A460021BD
:10269000018C4DF6FF7319404FF6FF7303EA0233C6
:1026A00019430184704730B5002301248C40A3B244
:1026B000048C9C430484048C02FA01F5ADB22C43D3
:1026C000048430BD30B5002304248C40A3B2048CB4
:1026D0009C430484048C02FA01F5ADB22C430484BB
:1026E00030BD70B50346002000241846183001257F
:1026F0008D40ACB21D8CA5431D8409B1082909D1B8
:1027000000EB6100056825F070050560056815435C
:1027100005600EE00D1FC5F34E052844056825F43D
:10272000E045056005684FF6FF7606EA0226354368
:10273000056070BD21B1028842F00202028004E00F
:1027400002884FF6FD731A400280704721B102885B
:1027500042F00402028004E002884FF6FB731A4044
:102760000280704721B1828842F08002828004E0BA
:1027700082884FF67F731A408280704702884FF636
:10278000F7731A40028002880A43028070478288E9
:102790004FF68F731A40828082880A438280704786
:1027A00002894FF6F8731A40028102890A430281B6
:1027B000704702894FF67F731A40028102890A43EB
:1027C0000281704781847047818570478186704798
:1027D0000187704781877047A0F8401070470288D2
:1027E0004FF6FF431A40028002880A430280704776
:1027F0000146888E70470146088F70470146888FD2
:1028000070470146B1F8400070470146888C704718
:102810000146088D704702460020138A0B400BB119
:10282000012000E000207047CA430282704730B5A3
:102830000246002000230024158A05EA0103958939
:1028400005EA010413B10CB1012000E0002030BD05
:10285000CA4302827047000010B50446FB48844218
:1028600009D101218803FFF79FF800214FF4804030
:10287000FFF79AF832E0F648844209D10121480472
:10288000FFF79FF800214FF40030FFF79AF825E09A
:10289000F048844209D101218804FFF792F8002111
:1028A0004FF48020FFF78DF818E0EB48844209D1FF
:1028B0000121C804FFF785F800214FF40020FFF73D
:1028C00080F80BE0E548844208D101210805FFF7B4
:1028D00078F800214FF48010FFF773F810BD2DE950
:1028E000F04786B005460E460024A24600BFA1462A
:1028F0000027B08900B100BF2F462C8A4CF6FF702C
:102900000440F08804432C82AC894EF6F310044056
:10291000B08831890843718908430443AC81AC8A8B
:102920004FF6FF400440B0890443AC8201A8FEF793
:10293000B4FFC648874202D1DDF810A001E0DDF8FF
:102940000CA0A88900F4004040B10AEBCA0000EBDB
:102950000A1031684900B0FBF1F807E00AEBCA0041
:1029600000EB0A1031688900B0FBF1F86420B8FB75
:10297000F0F004012009642101FB1089A88900F40A
:10298000004040B1322000EBC900B0FBF1F000F094
:102990000700044308E0322000EB09106421B0FB7B
:1029A000F1F000F00F0004432C8106B0BDE8F08781
:1029B0004FF41651016000218180C18001810C21FA
:1029C000418100218181704710B502460020108AA4
:1029D0004FF2FF0318400B884C8823438C88234315
:1029E000CC8823431843108210BD00210180418010
:1029F0008180C180704721B1828942F40052828176
:102A000004E082894DF6FF731A4082817047F0B569
:102A10000346002400260025002040F66A17B9422C
:102A200000D100BF1846C1F3421401F01F06012770
:102A300007FA06F5012C01D10C3004E0022C01D17B
:102A4000103000E014301AB107682F43076002E02D
:102A50000768AF430760F0BD1AB1838A0B438382D6
:102A600002E0838A8B4383827047028A4FF6F073B9
:102A70001A400282028A0A430282704782894FF218
:102A8000FF731A40828182890A438281704721B193
:102A9000828942F00202828104E082894FF6FD734E
:102AA0001A4082817047028A4FF6DF731A40028211
:102AB000028A0A430282704721B1028A42F48042AC
:102AC000028204E0028A4BF6FF731A4002827047CA
:102AD000C1F308028280704701468888C0F308006D
:102AE0007047818941F0010181817047028BD2B228
:102AF0000283028B42EA012202837047028B02F4B6
:102B00007F420283028B0A430283704721B1828A8B
:102B100042F02002828204E0828A4FF6DF731A407C
:102B20008282704721B1828A42F01002828204E0E0
:102B3000828A4FF6EF731A408282704721B1828AEF
:102B400042F00802828204E0828A4FF6F7731A404C
:102B50008282704721B1828942F40042828103E07F
:102B60008289C2F30E028281704721B1828A42F4C7
:102B70000062828204E0828A4FF2FF731A408282EE
:102B80007047828A4FF6FB731A408282828A0A4318
:102B90008282704721B1828A42F00202828204E07E
:102BA000828A4FF6FD731A408282704702460020E7
:102BB000B1F5007F00D100BF13880B400BB101209D
:102BC00000E00020704701F40072B2F5007F00D1F0
:102BD00000BFCA430280704770B50246002400233C
:102BE0000025002040F66A16B14200D100BFC1F3B3
:102BF000421501F01F03012606FA03F3012D02D14D
:102C00009689334006E0022D02D1168A334001E056
:102C1000968A33400C12012606FA04F416883440D2
:102C200013B10CB1012000E0002070BD10B50022EE
:102C3000002340F66A14A14200D100BF0A12012409
:102C40009440A3B2DC43048010BD00000038014072
:102C50000044004000480040004C0040005000404C
:102C600070B504460D46E1B21648FFF731FF00BFCC
:102C700080211448FFF79AFF0028F9D0204670BD44
:102C80002DE9F041104C002500260027FDF7B9FA88
:102C900000F016FF01F010FA01F0A8FB00200B492C
:102CA000086001F030FD0A23094A0021094803F0B9
:102CB000C3F9002003F0C5FD01F04AFE0020BDE885
:102CC000F081000000380140D80F4940300000205A
:102CD000AC0200206B360008704704E013A200210C
:102CE000084601F04CFBF9E700BFFEE700BFFEE736
:102CF00000BFFEE77047704710B501F01AFD0E499E
:102D00000E48006802F078FD01F059FE01F07DFDEB
:102D100001F02AFD10BD10B501F00BFD4FF400705D
:102D2000FEF703FB01F020FD10BD00004861726456
:102D30004661756C740000003C00002044000020D7
:102D400008B5B0E06A460021FE48006802F099FC30
:102D50000B2003F0F1FB00909DF8000038B1FAA2BF
:102D60000021032001F00BFB0E2003F0E5FB1020F7
:102D700003F0E2FB00909DF8000038B1F2A20021C0
:102D8000032001F0FCFA0E2003F0D6FB0D2003F027
:102D9000D3FB00909DF8000038B1EBA20021032086
:102DA00001F0EDFA0E2003F0C7FBEBA20021032097
:102DB00001F0E5FA4FF40041E948FEF7CEFB4FF48D
:102DC0008051E748FEF7C9FB4FF40041E548FEF7A4
:102DD000C2FB642300221146104603F0A7FC4FF407
:102DE0000041E048FEF7B9FB4FF48071DD48FEF783
:102DF000B2FB502300221146104603F097FC4FF41B
:102E00008071D848FEF7A9FB3C23002211461046EA
:102E100003F08CFC4FF48071D248FEF79CFBA0239A
:102E200000221146104603F081FC4FF48071CD481A
:102E3000FEF793FB3C2300221146104603F076FC7C
:102E40004FF48071C748FEF786FB4FF4A073002251
:102E50001146104603F06AFC4FF48071C148FEF73A
:102E60007CFB3C2300221146104603F05FFC4FF42C
:102E70008071BC48FEF76FFB4FF4207300221146AF
:102E8000104603F053FC4FF48071B648FEF765FB23
:102E900000230F221946184603F048FC4FF48071B6
:102EA000AF48FEF75AFB4DE7002106E02C2100BF9A
:102EB0000A00A1F1010399B2FAD10200A0F10103C5
:102EC00098B2F3D1704710B504460723012221467A
:102ED000A548FDF744FB0121A348FDF714FB00BF03
:102EE0000221A148FDF780FC0028F9D09E48FDF79B
:102EF0009DFB10BD2DE9F84F80460C4600250027AC
:102F0000A946002641E096B94046FFF7DCFF82461D
:102F100003F0BEFE0746B946284603F0B9FE8346D5
:102F2000394603F073FD824603F0C4FE0546404671
:102F3000FFF7C9FF05444046FFF7C5FF834603F08E
:102F4000A7FE8246394603F003FF06D24046FFF74C
:102F5000BAFF824603F09CFE07464046FFF7B3FFE8
:102F6000834603F095FE8246494603F0E7FE06D20B
:102F70004046FFF7A8FF824603F08AFE81464FF4E1
:102F8000FA70FFF791FF701CC6B2A642BBDB284661
:102F900003F07EFE3946009003F08AFD83464946E1
:102FA00003F086FD824603F085FE0546A01EB5FBB4
:102FB000F0F080B2BDE8F88F10B50446062C52D26E
:102FC000DFE804F003101D2A374480216548FEF72E
:102FD000C4FA40216348FEF7C0FA20216148FEF799
:102FE000BCFA40E080215F48FEF7B7FA40215D4817
:102FF000FEF7B3FA20215B48FEF7ADFA33E08021FB
:103000005848FEF7AAFA40215648FEF7A4FA2021B4
:103010005448FEF7A2FA26E080215248FEF79DFAB6
:1030200040215048FEF797FA20214E48FEF793FAC8
:1030300019E080214B48FEF78EFA40214948FEF7FF
:103040008CFA20214748FEF788FA0CE08021454899
:10305000FEF781FA40214348FEF77FFA20214148DC
:10306000FEF779FA00BF00BF10BD1CB5F4E03F4A7F
:1030700000213F48006802F004FB3EA2002103202B
:1030800001F07DF94FF480713548FEF764FA4FF492
:1030900080713448FEF75FFA9623002211461046ED
:1030A00003F044FB4FF480712E48FEF756FA50238C
:1030B00000221146104603F039FB4FF48071294875
:1030C000FEF749FA962300221146104603F02EFB24
:1030D0004FF480712348FEF740FA50230022114636
:1030E000104603F023FB4FF480711E48FEF733FABD
:1030F000962300221146104603F018FB4FF480710E
:103100001848FEF72AFA502300221146104603F011
:103110000DFB4FF480711348FEF71DFA9623002231
:103120001146104603F002FB4FF480710D48FEF784
:1031300014FA0520FFF740FF14210420FFF7DAFE00
:1031400083461BE0580000205461736B5375737005
:10315000656E6445727200007461736B4F46460081
:10316000000C014000080140002401403A0000200A
:10317000540000207461736B4F4E000003F08DFD0E
:1031800006464FF06632FE4B03F098FC4FF0663275
:10319000FC4BCDE9000103F091FC04460022FA4B00
:1031A00003F0FEFC804603F0ACFD8246F749504632
:1031B00003F0C4FD14D20B2003F0BEF9102003F07D
:1031C000BBF90E2003F0B8F909E04FF48071F04824
:1031D000FEF7C1F94FF48071EE48FEF7BEF9F4E74F
:1031E0004FF40041EB48FEF7B6F9002301221946DF
:1031F000184603F09BFA4FF40051E648FEF7ABF98E
:10320000002301221946184603F090FA4FF480413A
:10321000E048FEF7A0F9002301221946184603F002
:1032200085FA4FF48051DB48FEF795F94FF40041E1
:10323000D748FEF790F9642300221146104603F0A8
:1032400075FA4FF40041D248FEF787F90120D249C0
:103250000860FF2003F070F909E710B50446082C58
:103260006DD2DFE804F004111E2B3845525F0421B3
:10327000C748FEF772F90221C548FEF76EF9012131
:10328000C348FEF76AF95AE00421C148FEF765F920
:103290000221BF48FEF761F90121BD48FEF75BF945
:1032A0004DE00421BA48FEF758F90221B848FEF76C
:1032B00052F90121B648FEF750F940E00421B44824
:1032C000FEF74BF90221B248FEF745F90121B0485B
:1032D000FEF741F933E00421AD48FEF73CF9022145
:1032E000AB48FEF73AF90121A948FEF736F926E086
:1032F0000421A748FEF72FF90221A548FEF72DF972
:103300000121A348FEF727F919E00421A048FEF7A0
:1033100022F902219E48FEF71EF901219C48FEF782
:103320001CF90CE004219A48FEF715F9022198488F
:10333000FEF711F901219648FEF70DF900BF00BF15
:1033400010BD94B000201190129018210AA803F02B
:103350004BFB182104A803F047FB4FF000090024A1
:10336000DFE08E4A00218E48006802F08AF98DA2C3
:103370000021084601F003F84FF000094DE04846EF
:10338000FFF76BFF4846FFF717FE0A23002211469E
:10339000104603F0CBF90A210420FFF7ABFD0190A2
:1033A00003F07BFC4FF06632754BCDE9020103F070
:1033B00085FB07464FF06632724B03F07FFB0546F4
:1033C0000022714B03F0ECFB824603F09AFC0AA941
:1033D00041F829000A2300221146104603F0A6F9FD
:1033E0000A210320FFF786FD029003F051FC0390B1
:1033F00003F074FC07464FF06632624B03F05EFB4D
:1034000082460022604B03F0CBFB054603F079FCBB
:1034100004A941F8290009F10109B9F1060FAEDB51
:103420000F9810909DF840008DF844009DF84100E1
:103430008DF845009DF842008DF846009DF8430048
:103440008DF847009DF840009DF8411008449DF814
:10345000421008449DF843100844C0B28DF848005B
:1034600011A800F058FB05240CE0621E0AAB53F8CB
:1034700022100AAA52F8240003F01AFB0AA941F804
:103480002400641E002CF0D100BF48E00AA951F8C6
:103490002400474903F052FC07D2464850F8240064
:1034A000401C444941F8240003E00020414941F810
:1034B000240004A951F824003F4903F03FFC07D23F
:1034C0003E4850F82400401C3C4941F8240003E0E9
:1034D0000020384941F82400364850F82400C82814
:1034E0000BDD0020334941F8240002202A490860FE
:1034F00033493448006802F07FF9304850F824001E
:10350000C8280BDD00202D4941F824000220224963
:1035100008602B492B48006802F06EF9641C062CE9
:10352000B4DB1EE772E01D4A00212748006802F064
:10353000A8F84FF400711748FDF7F3FF28B92348A6
:103540000068401C2149086002E000201F49086013
:103550001F480068401C1E490860084600680A2889
:103560000ADB0D48006838B115490D48006802F0C3
:1035700043F900201649086014480068C82829E06B
:103580006666264066660A400000B0409A999941F6
:1035900000080140000C0140300000203A000020EB
:1035A0005000002072756E6E696E672E2E2E000020
:1035B000CDCC4C40B0020020D7A3703FC802002001
:1035C0003C00002058000020440000205C00002047
:1035D000600000200ADD4D48006838B900204C49E1
:1035E00008604C494C48006802F006F948480068F9
:1035F000C8280BDD45480068012807D10020444950
:10360000086044494548006802F0F6F88BE770B559
:1036100086B001A8FEF741F964210298B0FBF1F4ED
:103620002146B1F1807F00D31DE021F07F40401E94
:103630004FF0E022506150170F22002807DA1307DD
:103640001E0E374B00F00F052D1F5E5503E01307CC
:103650001D0E344B1D5400BF00204FF0E02290613E
:103660000720106100BF06B070BD48E0002001F0E7
:1036700082FF2D490860002001F07DFF2B49086082
:10368000002001F078FF24490860002001F073FF5A
:10369000224908604FF400412548FDF75EFF4FF4D2
:1036A00080512348FDF759FF4FF480412048FDF732
:1036B00054FF4FF400511E48FDF74FFFFFF7A7FFDF
:1036C0000B231C4A0021AFF2A31002F0B5FC10231B
:1036D000194A0021AFF2953002F0AEFC0D23174AD3
:1036E0000021AFF2796002F0A7FC0E23144A0021FA
:1036F000AFF6B31002F0A0FC0A2002F049FDB5E7D6
:1037000001460020704770477047000030000020DD
:103710005C0000203C0000205400002058000020E5
:1037200018ED00E000E400E044000020500000201C
:10373000000C0140DC040020DC060020DC08002036
:10374000DC0A002000B587B01820ADF80400002086
:103750008DF8070001A9FE48FDF750FEFD48FCF773
:103760003FFE002002908DF80C008DF80D004FF404
:10377000602004900020059001208DF8180002A917
:10378000F448FCF754FE0121F248FCF77CFEF148B6
:10379000FCF79BFE00BFEF48FCF79CFE0028FAD127
:1037A000EC48FCF7A1FE00BFEA48FCF7A2FE0028A7
:1037B000FAD107B000BD08B54FF4A060FCF7A2FD38
:1037C0001D208DF8000002208DF801008DF8020008
:1037D00001208DF803006846FCF799FD14208DF850
:1037E000000002208DF8010001208DF802008DF804
:1037F00003006846FCF78BFD08BD08B548208DF82E
:1038000003004FF40070ADF8000003208DF80200B3
:103810006946D148FDF7F2FD08BD00B589B0082022
:10382000ADF8040018208DF8070003208DF806007D
:1038300001A9C948FDF7E2FD0121C848FDF7AFFE27
:103840000020ADF81800ADF81A004FF4B470ADF8D0
:103850001C000020ADF81E0006A94FF08040FEF7C6
:10386000C1F97020ADF808000120ADF80A00002071
:10387000ADF80E00ADF8100002A9B948FEF7EFF957
:103880000821C806FEF743FE01218807FEF706FE61
:1038900001218807FEF702FD01218807FEF70AFDD6
:1038A00009B000BD00B589B04FF40060ADF8040068
:1038B00048208DF8070001A9A548FDF79FFD4FF4AA
:1038C0008050ADF8040018208DF8070003208DF813
:1038D000060001A99E48FDF791FDA248FCF7A8FF4C
:1038E00006A8FDF7C9F800208DF81E008DF81F000E
:1038F0008DF820008DF821008DF822008DF823002E
:103900008DF81A008DF81B0002208DF81C00012094
:103910008DF81D000620ADF8180006A99148FCF7A7
:10392000A0FF00208DF812008DF8130001208DF803
:1039300014000020ADF80800ADF80A00ADF80C0046
:10394000ADF80E00ADF8100001208DF8150002A8AA
:10395000FDF711F8012202218248FDF70BFB09B0A7
:1039600000BD00B585B04FF48060ADF800000420C4
:103970008DF8030003208DF8020069467648FDF7B4
:103980003DFD4FF40070ADF8000018208DF80300E5
:1039900069466F48FDF732FD7348FEF75DFF4FF44F
:1039A000E13001900020ADF80800ADF80A00ADF854
:1039B0000C00ADF810000C20ADF80E0001A96A480B
:1039C000FEF78DFF01216848FFF715F805B000BD2F
:1039D00008B501216548FDF7E2FD10208DF80300D0
:1039E000E720ADF8000003208DF802006946584832
:1039F000FDF704FD10208DF803004FF47140ADF881
:103A0000000003208DF8020069465348FDF7F6FCDC
:103A10004FF471415048FDF7A0FD10208DF80300D0
:103A20000001ADF8000003208DF802006946484807
:103A3000FDF7E4FC4FF480714548FDF78EFD102042
:103A40008DF80300C002ADF8000003208DF80200DD
:103A500069463F48FDF7D2FC4FF400413C48FDF772
:103A60007CFD08BD10B501210420FDF783FF012175
:103A70000820FDF77FFF01211020FDF77BFF0121CA
:103A80002020FDF777FF01218803FDF773FF012157
:103A90000846FDF76FFF01214802FDF76BFF01218A
:103AA0008802FDF767FF01214806FDF770FF01213D
:103AB0000846FDF76CFF01210220FDF768FF10BDED
:103AC00010B5FFF7CFFFFFF783FFFFF74AFFFFF7C0
:103AD000E9FEFFF7A2FEFFF790FEFFF76CFEFFF78F
:103AE00031FE10BD70470EB50020ADF80600ADF8F0
:103AF000020041F28730ADF8040041F61F40ADF8F6
:103B0000000069461A48FEF76DF801221146184870
:103B1000FEF7DFFB0EBD70B586B00446002640F20E
:103B20000240019005208DF80E0000208DF80D0058
:103B30008DF80C0020788DF80F0061788DF810104A
:103B4000A1788DF81110E1788DF81210217911E02B
:103B50000008014000240140000C01400001180051
:103B6000002C014000640040003801400002300099
:103B7000000400408DF8131001A91848FCF7EAFF73
:103B8000054600BF29461548FDF77CF80128F9D005
:103B900006B070BD10B588B00020019002900024DE
:103BA00002210E48FDF74EFA40B102210B48FDF705
:103BB000E4FA03AA00210948FDF7C1F8039850B9B7
:103BC000002406E00DF11700005D01A90855601CF6
:103BD000C4B2082CF6DB08B010BD00000064004041
:103BE00008B51820ADF8000014208DF8030003205C
:103BF0008DF802006946FE48FDF700FC0320ADF891
:103C000000006946FB48FDF7F9FB08BD10B510211F
:103C1000F748FDF7A0FC0821F548FDF79CFC0220C1
:103C2000FFF742F91021F248FDF797FC0220FFF759
:103C30003BF90821EE48FDF790FC10BD10B50221BC
:103C4000EC48FDF788FC0121EA48FDF784FC0220DE
:103C5000FFF72AF90221E748FDF77FFC0220FFF772
:103C600023F90121E348FDF778FC10BD10B50821C8
:103C7000DF48FDF770FC1021DD48FDF76EFC0220E7
:103C8000FFF712F91021DA48FDF765FC0220FFF773
:103C90000BF910BD10B50121D648FDF75CFC0221DF
:103CA000D448FDF75AFC0220FFF7FEF80221D14864
:103CB000FDF751FC0220FFF7F7F810BD10B5082101
:103CC000CB48FDF74AFC1021C948FDF746FC02200D
:103CD000FFF7EAF80821C648FDF73DFC0220FFF790
:103CE000E3F80821C248FDF738FC10BD10B50121EA
:103CF000C048FDF732FC0221BE48FDF72EFC022031
:103D0000FFF7D2F80121BB48FDF725FC0220FFF7A1
:103D1000CBF80121B748FDF720FC10BD10B50024F9
:103D20000821B348FDF717FC0120FFF7BDF810216B
:103D3000AF48FDF710FC0120FFF7B6F805E0601C66
:103D4000C4B2FA2C01DD012010BD1021A848FDF7F6
:103D5000E8FB0028F3D10821A548FDF7FEFB002071
:103D6000F2E710B500240121A248FDF7F4FB012081
:103D7000FFF79AF802219F48FDF7EDFB0120FFF7BE
:103D800093F805E0601CC4B2FA2C01DD012010BDDF
:103D900002219848FDF7C5FB0028F3D10121954881
:103DA000FDF7DBFB0020F2E770B505460E464EBB83
:103DB00008218F48FDF7D1FB002420E005F08000AA
:103DC00020B110218A48FDF7C6FB03E01021884886
:103DD000FDF7C3FB6806050E0220FFF765F8082112
:103DE0008348FDF7B8FB0220FFF75EF80821804802
:103DF000FDF7B3FB0120FFF757F8601CC4B2082C95
:103E0000DCDB2AE0012E28D101217A48FDF7A5FB51
:103E1000002420E005F0800020B102217548FDF764
:103E20009AFB03E002217348FDF797FB6806050E35
:103E30000220FFF739F801216E48FDF78CFB0220C4
:103E4000FFF732F801216B48FDF787FB0120FFF7F0
:103E50002BF8601CC4B2082CDCDB70BD70B50646C4
:103E6000002516BB00241BE008216148FDF775FB07
:103E70000220FFF719F808215D48FDF76CFB0120CF
:103E8000FFF712F86806050E10215948FDF749FBA7
:103E900008B1681CC5B20120FFF706F8601CC4B267
:103EA000082CE1DBFFF70AFF23E0012E21D10024DB
:103EB0001BE001214F48FDF750FB0220FEF7F4FF05
:103EC00001214C48FDF747FB0120FEF7EDFF680696
:103ED000050E02214748FDF724FB08B1681CC5B256
:103EE0000120FEF7E1FF601CC4B2082CE1DBFFF704
:103EF000FDFE284670BD70B504460D46DDB9FFF7DE
:103F000085FE00219020FFF74FFFFFF707FF0021FC
:103F10000120FFF749FFFFF701FF20120021FFF703
:103F200043FFFFF7FBFEE0B20021FFF73DFFFFF785
:103F3000F5FEFFF79BFE012D1BD1FFF77FFE012150
:103F40009020FFF731FFFFF70CFF01210846FFF734
:103F50002BFFFFF706FF20120121FFF725FFFFF7D8
:103F600000FFE0B20121FFF71FFFFFF7FAFEFFF7A6
:103F700091FE70BD2DE9F04107460E46F6B9FFF7F8
:103F800045FE00219020FFF70FFFFFF7C7FE00213D
:103F90003846FFF709FFFFF7C1FEFFF737FE0021A4
:103FA0009120FFF701FFFFF7B9FE0020FFF756FF52
:103FB00004460020FFF752FF054624E0012E22D1DF
:103FC000FFF73CFE01219020FFF7EEFEFFF7C9FE50
:103FD00001213846FFF7E8FEFFF7C3FEFFF72EFE8C
:103FE00001219120FFF7E0FEFFF7BBFE012003E077
:103FF00000080140000C0140FFF730FF044601209B
:10400000FFF72CFF0546200204B22C432046BDE8F2
:10401000F08170B50446002521460020FFF7AAFF75
:104020000546284670BD2DE9F05F82465046FFF7F1
:10403000F0FF044602F023FE8346584602F04EFE8F
:104040008046254A254B02F039FD06460022244BC6
:1040500002F0A6FD044602F054FE83465846BDE831
:10406000F09F2DE9F04104460D460027B84614B9EB
:104070004FF480480DE0012C02D14FF4A04808E035
:10408000022C02D14FF4C04803E0032C01D14FF4BD
:10409000E04848F4024040F0E307B8B22946FFF791
:1040A0002AFF4CF25030FEF7FFFE2846FFF7BBFF19
:1040B00006463046BDE8F08110B50024FFF790FDBC
:1040C0004DF2E32420460021FFF715FF2046012191
:1040D000FFF711FF10BD0000FCA9F1D24D621040A6
:1040E000C0FFDF4008B501210820FDF743FC802018
:1040F000ADF8000010208DF8030003208DF80200B9
:104100006946E848FDF77AF94020ADF800006946B5
:10411000E448FDF773F91020ADF800006946E14866
:10412000FDF76CF92020ADF800006946DD48FDF789
:1041300065F908BD00BF0100A0F10100FBD1704787
:104140000DE0002108E0002201E0531C9AB2B2F514
:104150007A7FFADB4B1C99B20A29F4DB401E002857
:10416000EFDC704770B50446002517E004F08000CE
:1041700020B18021CB48FDF7EEF903E08021C9484A
:10418000FDF7EBF94021C748FDF7E5F94021C548A7
:10419000FDF7E3F96006040E681CC5B2082DE5DBE7
:1041A00070BD10B504462021BE48FDF7D6F9204663
:1041B000FFF7D8FF10BD10B504462021B948FDF720
:1041C000CAF92046FFF7CEFF10BD0FB438B505A8D9
:1041D000009007E0009810F8041BCCB20090204635
:1041E000FFF7DFFF9DF81010481EC0B204900029B1
:1041F000F0D10020009038BC5DF814FB70B5054686
:104200000C462846E91705EB5171C910A5EBC10111
:10421000CDB22046E11704EB5161C911A4EBC111E5
:10422000CCB205F1B0010120FFF7CFFF2646E01721
:1042300004EB10700011A4EB00110120FFF7C5FF83
:10424000E01704EB1070001100F110010120FFF7DE
:10425000BCFF70BD70B500240EE000212046FFF7C2
:10426000CDFF002504E00020FFF7A5FF681CC5B2C4
:10427000802DF8DB601CC4B2082CEEDB70BD7FB56E
:1042800004460D4616463046F11706EB5171C9102B
:10429000A6EBC101CEB22046E11704EB5171C91063
:1042A000A4EBC101CCB22846E91705EB5171C91046
:1042B000A5EBC101CDB2A54200DA25462E21012091
:1042C000FFF783FFFF2100226800401C6300CDE957
:1042D0000060CDE9022126210720FFF776FF2F217C
:1042E0000120FFF772FF7FBD2DE9F04104460D4626
:1042F00090462046E11704EB5171C910A4EBC101AF
:10430000CCB22846E91705EB11710911A5EB011193
:10431000CDB26006040EE806050E2AE098F800000B
:104320002038C7B229462046FFF768FF002607E07D
:1043300006EB07115C4A505CFFF73DFF701CC6B2EC
:10434000082EF5DB611CC8B22946FFF757FF00268F
:1043500008E006EB07110831534A505CFFF72BFFCA
:10436000701CC6B2082EF4DB08F1010805F1080044
:10437000C5B298F800000028D0D1BDE8F0810FB494
:104380002DE9F84305460F46072D01DC0F2F03DD0D
:10439000BDE8F8035DF814FB0BA800904348009AB1
:1043A0000A9902F0CFFE002000907806060E3F48E2
:1043B00002F025FB304400F0FF08444605E02020D1
:1043C000A11B3A4A5054601CC4B23948405DA04217
:1043D000F5DC0020A11B354A505439462846FFF72A
:1043E00083FF334800F8058000BFD1E710B5FFF721
:1043F00079FE40212B48FDF7B0F810212948FDF740
:10440000ACF8C820FFF79CFE10212648FDF7A3F862
:10441000022220211046FFF7D8FE7F23002221210F
:104420000320FFF7D2FE0723002222210320FFF7FB
:10443000CCFE3F22A8210220FFF7C7FE0022D32195
:104440000220FFF7C2FE40210120FFF7BEFEA1219E
:104450000120FFF7BAFEC8210120FFF7B6FE1222A5
:10446000DA210220FFF7B1FE7F2281210220FFF72F
:10447000ACFEA4210120FFF7A8FEA6210120FFF732
:10448000A4FE8022D5210220FFF79FFE14228D2159
:104490000220FFF79AFEAF210120FFF796FEFFF7FB
:1044A000D9FE10BD000C0140247A0008E00A00206B
:1044B000640000207CB5002514E06946284601F020
:1044C000F9FF064666B9F74850F8254044B1012C7B
:1044D00006D0D4E9020100EB810060640198A06479
:1044E000681CC5B23F2DE8D97CBD002400BF02E0A6
:1044F000142002F0E9F8EC4800780028F8D0EB48E6
:1045000000686421B0FBF1F0E849086008460068E3
:1045100028B90020E6490870FF2002F00DF800BF1E
:1045200002F0AAF90446E3480068E3490860002065
:10453000E0490860204602F0A3F9DF480068DB4943
:104540000968B0FBF1F0C0F16400D949087002F0CD
:10455000F2F9FFF7AFFF0A2002F0B6F8E0E700B586
:1045600087B0032000218022D44BCDE90132CDE970
:1045700003104FF6FE703E23D14A0090AFF2950033
:1045800001F0B1FD06AACFA13E2001F015FF07B052
:1045900000BD002400BF00BF02F06EF90446C5480C
:1045A0000068401CC3490860204602F069F902F027
:1045B000C1F9F1E700B587B0032000218022C54B87
:1045C000CDE90132CDE903104FF6FF703F23C24A17
:1045D0000090AFF2410001F086FD06AABFA13F2086
:1045E00001F0EAFE07B000BD04E0002200F8012B54
:1045F0004A1E91B20029F8D1704770B5C821BB4856
:10460000FFF7F2FF00230FE0581C85B203EB830095
:10461000B64901EB800405EB850001EB8006002024
:1046200020706660581C83B2092BEDD303EB830026
:10463000AE4901EB80040020207060600846AC4960
:10464000086070BD70B54FF47C71AA48FFF7CCFFCD
:104650004FF480719348FFF7C7FF002413E0601CFC
:10466000C5B2C4EBC40000EB4000A24901EB8003DB
:10467000C5EBC50000EB400001EB80065E619EA02B
:10468000D864601CC4B20B2CE9D3C4EBC40000EBAB
:104690004000984901EB80030020586196A0D8643F
:1046A00000209649086093489549086070BD002134
:1046B000944A1170002004E00021934A1154411CD7
:1046C000C8B20828F8D30021904A1170904A11709E
:1046D000904A1160904A1160704700208F4908602D
:1046E0008F4908708F4908708F4908708F4908708A
:1046F0008F4908606F4908606F4908606B4908601E
:1047000069490870704710B502F010F9FFF7E5FF2E
:10471000FFF7CDFFFFF796FFFFF76FFF00F0EAFE10
:1047200001F0C7FBFFF746FFFFF719FF02F0FFF8A4
:1047300010BD7E480078012808D179480078FF280C
:1047400004D277480078401C754908707047794951
:104750006C4A1278885C6C49095C764A515C01EBC2
:10476000C0016B4A1170704710B500246F48007883
:10477000012830D102F080F804466948007820B161
:1047800067480078401E6649087065480078F8B9A7
:1047900064480078E0B9FFF7DAFF42485C490978DD
:1047A00050F821005B49086059480078574909785A
:1047B00088420DD057480068806B401C55490968F5
:1047C00088635B480068401C5949086002F073F830
:1047D000204602F055F810BD10B50024534800786B
:1047E000012811D102F048F804464D48007840B93C
:1047F0004C480078FF2804D24A480078401C4949B8
:104800000870204602F03CF810BD10B5002402F0FC
:1048100033F8044642480078F8B942480078E0B9D5
:10482000FFF795FF1F483A49097850F821003949A8
:104830000860374800783549097888420DD03548F6
:104840000068806B401C33490968886338480068F9
:10485000401C3749086002F027F8204602F010F8A3
:1048600010BD10B500243148007801286FD102F046
:1048700003F804462B48007880B12A480078401E8F
:10488000284908700846007848B92548007838B9A2
:10489000204601F0F5FFFFF7B8FF58E054E04FE085
:1048A0004AE000005C10002080000020780000201A
:1048B00074000020900000207C0000205C0C002090
:1048C000580E002075432F4F532D494920537461D2
:1048D000740000005C0E00205810002075432F4F1C
:1048E000532D49492049646C65000000440B0020A9
:1048F0006C0000205C1100203F000000A0000020A0
:104900009800002085000020860000208300002001
:10491000840000209C00002094000020AC000020B7
:1049200081000020820000208F0000208E000020E7
:104930006800002014800008204601F0A1FF06E076
:10494000204601F09DFF02E0204601F099FF10BDD6
:1049500010B5EB48007890B9FFF7F9FEE948007808
:10496000E9490870E948E749097850F82100E84921
:10497000086008460068E749086001F084FF10BD40
:1049800010B50024022001F09FFE01F075FF0446DF
:104990000020E1490860204601F072FF0A2001F082
:1049A00093FE01F069FF0446DB480068DB490860BC
:1049B0000120DB490870204601F062FF10BD70B590
:1049C000002602F008F801F057FF0646D5480068B7
:1049D000401CD4490860304601F052FFC8480078B6
:1049E000012853D1D048007820B1012804D00228F2
:1049F00009D103E001250BE0002509E00125012094
:104A0000C949087004E001250020C749087000BFAB
:104A100000BF05B970BDC548046833E001F02CFF44
:104A20000646E06A50B3E06A401EE062E06A28BBD6
:104A300094F8300000F0370040B114F8300F00F067
:104A4000C800207001206070303C02E0002084F833
:104A5000310094F8300000F0080078B93434A078C0
:104A6000B34909780843B24908702078B149085C15
:104A70006178084314F83419AE4A505464693046DA
:104A800001F0FEFE94F832003F28C7D100BFC1E715
:104A900040F223107047704710B590F8342001F1B0
:104AA0000B039B5C90F83540A34301F10B04A35426
:104AB00023469B5C23B98B7A90F83640A3438B72D4
:104AC00010BD2DE9F04F05460F4690469946A87A4D
:104AD00099490E5C05F10B00805D11F800B00BEBFD
:104AE000C60000F0FF0A894850F82A400020203410
:104AF000E0602760207C20EA0800207484F8119090
:104B0000207C203C00F0080068B994F83600884901
:104B100009780843864908708648805D94F8351006
:104B200008438449885529462046FFF7B5FF50467B
:104B3000BDE8F08F10B5774A1268D061754A1268E7
:104B400092F8343000F10B02D25C724B1B6893F880
:104B500035301A436F4B1B6893F8344000F10B0358
:104B60001A55827A6B4B1B6893F836301A4382725F
:104B7000684A126892F834106E4A525C654B1B68A2
:104B800093F835309A436B4B5A541A46525C42B9EB
:104B9000604A126892F83630654A12789A43644B3C
:104BA0001A7010BD014600228A72002005E0002321
:104BB00001F10B021354421CD0B20828F7D37047FE
:104BC00005E011F8013B00F8013B531E9AB2002AA0
:104BD000F7D170470146002002E0491C421CD0B2C8
:104BE0000A78002AF9D170472DE9F84F05460F469B
:104BF00090469946DDE90AAB0020009001F03CFEAA
:104C000000904E480468002C75D0183454F8040CF9
:104C10004A490860009801F033FE44F8187CA576F4
:104C2000002020766076606144F814BC44F80CAC37
:104C300044F8108C0C9824F8080C24F8069C0020EA
:104C4000E077E810207705F00700E076217F01206B
:104C50008840A077E17E0120884060770020606076
:104C6000E060A0602062A0626062E0622063AFF258
:104C700078306063183C002606E0002104F1500003
:104C800040F82610701CC6B2002EF6D0204601F067
:104C9000A1FE204601F04CFE01F0EEFD00901B4805
:104CA00040F825402148006860610020A0611F484D
:104CB000006810B11D48006884611C4804603434E9
:104CC000A0781B49097808431949087020781949C8
:104CD000085C6178084314F83419164A505418488F
:104CE0000078401C16490870009801F0C9FD0020AA
:104CF000BDE8F88FFFE7009801F0C2FD4220F7E71A
:104D00008E00002084000020830000205C10002022
:104D10009C000020940000209000002078000020DB
:104D200080000020AC000020A4000020A000002093
:104D300085000020860000201480000898000020D4
:104D40008F0000202DE9F05F04460F4691461E4675
:104D50004FF0000B2078052804D00120307000208F
:104D6000BDE8F09F09F0800ABAF1000F04D029F0E5
:104D700080094FF0010801E04FF00008002030707A
:104D800001F07AFD8346B9F1000F2CD0B9F1010F83
:104D90003BD0B9F1020F03D0B9F1030F46D111E0B6
:104DA000208900EA0705BD4206D1B8F1010F05D1FF
:104DB0002089A843208101E070203070584601F01E
:104DC0005FFD3AE0208900EA070535B1B8F1010F2F
:104DD00005D12089A843208101E070203070584619
:104DE00001F04EFD29E0208927EA0005BD4206D1E9
:104DF000B8F1010F05D120892843208101E07020FE
:104E00003070584601F03CFD17E0208927EA000584
:104E100035B1B8F1010F05D120892843208101E087
:104E200070203070584601F02BFD06E0584601F026
:104E300027FD00256F20307000BF00BF28468FE798
:104E40002DE9F04106460D460027FA48007820B1CA
:104E5000102028700020BDE8F08101F00DFD07460C
:104E6000F548046884B100684068F349086005208B
:104E70002070268100206060F0A0E060384601F0DC
:104E8000FFFC0020287004E0384601F0F9FC722095
:104E900028702046DFE730B501464A6808682AB91D
:104EA000CC68606028B10025456002E0106000B168
:104EB00042608B6800255D6230BDF0B506460F4646
:104EC000B4680020283460602780207A00F0DF007A
:104ED000207200206072207A283C88B93434A0788F
:104EE000D74909780843D64908702078D549085C25
:104EF0006178084314F83419D24A5054012500E06F
:104F000000253046FFF7C7FF2846F0BD2DE9F047E2
:104F10000446894615464FF0000AC648007820B17D
:104F20000F2028702046BDE8F0872078052803D0A0
:104F3000012028702046F6E701F09EFC824660685A
:104F400008B1012700E00027B9F1000F03D0B9F143
:104F5000010F3CD119E08FB9B8A0E06000202070AB
:104F6000B5480068606000202081B3480460504666
:104F700001F086FC00202870002605E0504601F074
:104F80007FFC49202870264628E0D4F8048005E0FC
:104F900000214046FFF791FFD8F80080B8F1000FDC
:104FA000F6D1A6A0E06000202070A34800686060F1
:104FB00000202081A0480460504601F061FC012FD0
:104FC00001D1FFF722FC00202870002606E05046A1
:104FD00001F056FC07202870264600BF00BF30466F
:104FE000A1E72DE9F04105460E46144600279148F9
:104FF000007820B1112020700020BDE8F08101F080
:105000003BFC07462878052806D0384601F038FCD6
:10501000012020700020F0E7E86830603068FFF77A
:10502000D9FD8046384601F02BFC00202070404618
:10503000E3E72DE9F04105460E46144600277D487A
:10504000007818B112202070BDE8F08101F014FC46
:1050500007462878052805D0384601F011FC0120C4
:105060002070F1E7EE60384601F00AFC0020207065
:1050700000BFE9E7F0B51446059E734F3F6897F807
:10508000307047F02007DFF8C0C1DCF800C08CF8B2
:1050900030700027DFF8B0C1DCF800C08CF8317048
:1050A000694F3F68FE62684F3F6879620C828B747B
:1050B000654F3F688F6047680F6000274F60C8608A
:1050C000456805B1696041605F4F3F6897F83420DB
:1050D0005C4FBF5CDFF870C1DCF800C09CF835C0E5
:1050E00027EA0C07DFF85CC10CF802706746BF5C6A
:1050F0005FB9554F3F6897F836C0514F3F7827EA60
:105100000C07DFF83CC18CF80070F0BD2DE9F04FC2
:1051100089B005460F4691469A46129E002002909D
:105120004448007828B102203070002009B0BDE862
:10513000F08F4648007818B10D2030700020F5E758
:105140002878052803D0012030700020EEE709F010
:10515000800BBBF1000F04D009F07F094FF001086C
:1051600001E04FF0000801F087FB0290B9F1000F59
:105170004AD0B9F1010F78D0B9F1020F03D0B9F1DB
:10518000030F71D120E0288900EA0704BC420FD147
:10519000B8F1010F02D12889A04328812A4800686C
:1051A0000485029801F06CFB002030702046BDE7BA
:1051B0004B463A4604A92846CDF800A0FFF75AFF0F
:1051C000029801F05DFB78E0288900EA07047CB1D1
:1051D000B8F1010F02D12889A04328811A4800683C
:1051E0000485029801F04CFB0020307020469DE7BA
:1051F0004B463A4604A92846CDF800A0FFF73AFFEF
:10520000029801F03DFB58E0288927EA0004BC42DF
:105210001ED1B8F1010F02D12889204328810A4804
:1052200000680485029801F02BFB002030702046B6
:105230007CE71AE081000020700000203F000000A1
:1052400085000020860000209400002082000020BD
:105250004B463A4604A92846CDF800A0FFF70AFFBE
:10526000029801F00DFB28E01FE0288927EA0004DE
:105270007CB1B8F1010F02D1288920432881B148BF
:1052800000680485029801F0FBFA00203070204687
:105290004CE74B463A4604A92846CDF800A0FFF754
:1052A000E9FE029801F0ECFA07E0029801F0E8FA52
:1052B00000246F203070204638E700BFFFF7A5FAC2
:1052C00001F0DAFA02909F48006890F8310020B3AC
:1052D0009C48006890F831000390002099490968C3
:1052E00081F8310004A8FFF7D6FD00209549096830
:1052F00081F83000029801F0C3FA002403980128D5
:1053000005D0022802D10E20307003E000BF0A2031
:10531000307000BF00BF204608E78A480068048D4F
:10532000B8F1010F1ED1B9F1000F0ED0B9F1010F84
:105330000CD0B9F1020F03D0B9F1030F0AD100E08C
:1053400000BF2889A04328810BE000BF28892043A3
:10535000288106E0029801F093FA6F203070002057
:10536000E4E600BF029801F08BFA0020307020467E
:10537000DCE670B5002501F07FFA0546714800684B
:10538000048D284601F07CFA204670BD2DE9FC5FB3
:105390000446894692461E46002000902078052843
:1053A00004D0012030700020BDE8FC9F01F064FAB9
:1053B0000090BAF1000F03D0BAF1010F0AD104E056
:1053C000208920EA090020810BE0208940EA0900B9
:1053D000208106E0009801F053FA7120307000201F
:1053E000E2E700BF4FF0000B656855E0A87C40B3D2
:1053F000012838D0022802D0032844D111E02089A6
:10540000298A00EA0107288AB84209D13946284684
:10541000FFF753FD8046B8F1010F01D14FF0010BAA
:1054200038E02089298A00EA01074FB13946284629
:10543000FFF743FD8046B8F1010F01D14FF0010B9A
:1054400028E0288A218920EA0107288AB84209D160
:1054500039462846FFF731FD8046B8F1010F01D1EA
:105460004FF0010B16E0288A218920EA01074FB18D
:1054700039462846FFF721FD8046B8F1010F01D1DA
:105480004FF0010B06E0009801F0FAF96F20307040
:10549000002089E700BF2D68002DA7D1009801F0FA
:1054A000EFF9BBF1010F01D1FFF7AFF901F0E4F91A
:1054B000009020890190009801F0E2F900203070FE
:1054C000019871E72DE9F04104460D460027207848
:1054D000052804D0012028700020BDE8F08101F0EB
:1054E000CBF907462689384601F0CAF90020287012
:1054F0003046F2E72DE9F04150211348FFF774F8E8
:1055000000250EE0681C86B20F4800EB051400EB86
:105510000617002020706760AFF2E020E060681C92
:1055200085B2042DEED3084800EB0514002020704E
:105530006060AFF2F820E060034804490860BDE80D
:10554000F0810000940000200C0C0020700000206E
:1055500070B5044600262078012801D0002070BDD7
:1055600001F08AF90646656800206060304601F067
:1055700087F92846F3E770B505460026E34800782A
:1055800008B1002070BD01F077F90646E0480468D4
:10559000006820B1DE4800684068DD490860304698
:1055A00001F06EF93CB1012020700020208165607F
:1055B0002046FFF7F7FA2046E4E72DE9F0470446D6
:1055C000884615464FF000092078012804D00120B4
:1055D00028702046BDE8F087CC48007818B10F202D
:1055E00028702046F6E701F047F98146A07A08B115
:1055F000012700E00027B8F1000F03D0B8F1010F38
:1056000035D117E07FB900202070C1480068606084
:1056100000202081BE480460484601F031F9002096
:105620002870002605E0484601F02AF94920287034
:10563000264623E005E00023022219462046FFF714
:1056400040FAA07A0028F6D12070B1480068606066
:1056500000202081AE480460484601F011F9012F76
:1056600001D1FFF7D2F800202870002606E0484656
:1056700001F006F907202870264600BF00BF30461B
:10568000A8E72DE9F04105460F4614464FF0000803
:105690002878012804D0012020700020BDE8F08186
:1056A0009A48007818B1022020700020F6E7994847
:1056B000007818B10D2020700020EFE701F0DCF831
:1056C00080466E6846B100206860404601F0D8F818
:1056D000002020703046E1E78F48006890F83000E5
:1056E00040F002008C49096881F8300000208A49A6
:1056F000096881F8310088480068C7622846FFF7CA
:1057000019FA404601F0BCF8FFF77FF801F0B4F851
:1057100080468148006890F8310020B101280DD002
:1057200002280AD105E07C480068066A0020207043
:105730000DE000260E20207009E000BF29467648C3
:105740000068FFF7A9F900260A20207000BF00BFFB
:1057500000207149096881F830006F49096881F8B3
:1057600031006D490968C8616B49096808624046A3
:1057700001F086F8304691E72DE9F04104460F46E6
:1057800015464FF000082078012804D00120287029
:105790000020BDE8F08101F06FF88046A07A20B3C8
:1057A00000267FB1012F0CD107E002231A46002109
:1057B0002046FFF786F9701CC6B2A07A0028F4D103
:1057C00009E000BF02231A4600212046FFF779F9BD
:1057D000701CC6B200BF00BF404601F051F8FFF791
:1057E00014F80E2028703046D3E7404601F048F800
:1057F0000020287000BFCCE770B504460D46002697
:105800002078012801D0012070BD01F035F806464E
:10581000A07A60B10023022229462046FFF751F901
:10582000304601F02DF8FEF7F0FF0020ECE760684D
:1058300020B1304601F024F81420E5E765603046D9
:1058400001F01EF80020DFE72DE9F04104460E4686
:10585000154600272078012802D00120BDE8F081FC
:1058600001F00AF80746A07AE8B105F0010050B14E
:1058700005E00023022231462046FFF722F9A07AF4
:105880000028F6D105E00023022231462046FFF72A
:1058900018F9384600F0F4FF05F0040008B9FEF7E7
:1058A000B4FF0020DAE7606820B1384600F0E8FF76
:1058B0001420D3E76660384600F0E2FF0020CDE711
:1058C0002DE9F04704460D464FF0000920780128E5
:1058D00002D00120BDE8F08700F0CEFF8146A07A1B
:1058E000287304F10B0705F10408002605E017F8FA
:1058F000010B08F8010B701CC6B2082EF7D36068C4
:105900002860484600F0BCFF0020E3E7810000204B
:105910006C00002082000020940000202DE9F0415E
:1059200006460D464FF000083078022804D00120CA
:1059300028700020BDE8F08100F09EFF804674686A
:10594000E08A78B12169081D20610F68E08A401E55
:10595000E082A1682069884201D16068206100204E
:10596000287002E01F2028700027404600F088FFC2
:105970003846DFE72DE9F04106460F464FF00008B4
:10598000F748007810B10020BDE8F08100F074FF06
:105990008046F4480568006820B1F2480068406815
:1059A000F0490860404600F06BFF3DB300F064FF33
:1059B0008046ED480468C4B100680068EA490860A0
:1059C000404600F05DFF666006EB8700A060E66081
:1059D0002661A7820020E082022028700020288112
:1059E0006C602846FFF7DEF808E0DE480068686073
:1059F000DC480560404600F043FF00252846C3E729
:105A00002DE9F0470446894615464FF0000A2078F4
:105A1000022804D0012028702046BDE8F087D04835
:105A2000007818B10F2028702046F6E700F024FF18
:105A30008246A07A10B14FF0010801E04FF0000853
:105A4000B9F1000F03D0B9F1010F45D11FE0B8F152
:105A5000000F15D16668C44800683060C24806600F
:105A600000202070BF480068606000202081BD4891
:105A70000460504600F004FF00202870002705E075
:105A8000504600F0FDFE4920287027462BE005E037
:105A90000023042219462046FFF713F8A07A0028B5
:105AA000F6D16668B04800683060AF4806600020F4
:105AB0002070AC480068606000202081A948046024
:105AC000504600F0DDFEB8F1010F01D1FEF79DFE5A
:105AD00000202870002706E0504600F0D1FE072085
